:100000000C9434000C943E000C943E000C943E0082
:100010000C943E000C943E000C943E000C943E0068
:100020000C943E000C943E000C943E000C943E0058
:100030000C943E000C943E000C943E000C943E0048
:100040000C943E000C943E000C943E000C943E0038
:100050000C943E000C943E000C943E000C943E0028
:100060000C943E000C943E0011241FBECFEFD8E04C
:10007000DEBFCDBF0E9440000C949F000C94000096
:10008000259A80E285B92FEF57EA61E6215050406A
:100090006040E1F700C0000015B87FEF87EA91E605
:1000A000715080409040E1F700C000002CE530E046
:1000B00088E190E040E21FC0821B930B45B95FEFDF
:1000C00069E678E1515060407040E1F700C00000FF
:1000D00015B85FEF69E678E1515060407040E1F794
:1000E00000C000008230910564F02230310564F0D8
:1000F0008217930771F028173907F4F2281B390B80
:10010000DDCF8217930729F080E285B980E090E087
:10011000089580E285B98FEF93E224EF81509040FB
:100120002040E1F700C0000015B85FEF63E274EF14
:10013000515060407040E1F700C00000E5CFF894F6
:02014000FFCFEF
:00000001FF
