:100000000C943E000C9448000C9448000C9448005A
:100010000C9448000C9448000C9448000C94480040
:100020000C9448000C9448000C9448000C94480030
:100030000C9448000C9448000C9448000C94480020
:100040000C9448000C9448000C9448000C94480010
:100050000C9448000C9448000C9448000C94480000
:100060000C9448000C9448005D00610066006A0032
:100070006E00720076007A005600590011241FBEEF
:10008000CFEFD8E0DEBFCDBF0E9400010C947A0113
:100090000C9400008A30910520F015B888E18BB9E6
:1000A0000895FC01EC5CFF4F0C94340115B81BB8AB
:1000B000089515B880E48BB9089581E085B91BB81F
:1000C000089581E085B984EE8BB9089515B880E96B
:1000D0008BB9089515B880EC8BB9089515B884E6EE
:1000E0008BB9089515B888E48BB9089515B888E0E0
:1000F0008BB9089581E085B980EE8BB90895299A6E
:1001000085ED8A95F1F700002998089595B1937CC3
:1001100095B984FD2A9A85FD2B9A86FD2C9A87FD38
:100120002D9A299A85ED8A95F1F70000299808956E
:10013000CF93C82F0E9486008C2F8295807F0E94CB
:1001400086002D98CF91089528980C949800289AAD
:100150000C949800289883E30E949800289882E3E2
:100160000E949800289888E20E94980028988CE0C5
:100170000E949800289886E00E949800289881E0C4
:100180000E9498008FED9EE20197F1F700C00000F9
:100190000895289881E00E9498008FED9EE20197D3
:1001A000F1F700C000000895FC018081289A0C94AA
:1001B0009800CF93DF93CDB7DEB728970FB6F894AA
:1001C000DEBF0FBECDBF1A821982FE01339626E034
:1001D000DF011D922A95E9F74AE050E0BE016F5F0A
:1001E0007F4F0E943A018981289A0E9498002896A0
:1001F0000FB6F894DEBF0FBECDBFDF91CF9108954B
:10020000CF93DF938FEF84B90E94AA008CE590E032
:10021000C8E1D0E00BC0C81BD90BC230D10574F0C7
:100220008230910574F08C179D0781F08C179D0723
:1002300094F38C1B9D0BC230D10594F78C179D074E
:1002400029F080E090E0DF91CF910895289881E037
:100250000E9498008FED9EE20197F1F700C0000028
:10026000CE010E94D900EDCFEE0FFF1F0590F49153
:10027000E02D09944532510520F4423010F00C94E1
:100280004501FB011082CB010895BB274A3031F4B0
:10029000992322F4BDE2909581959F4F0C945101D2
:1002A000BB27FB015527AA27880F991FAA1FA41750
:1002B00010F0A41B83955051B9F7A05DAA3308F044
:1002C000A95DA193009779F7B111B1931192CB0178
:1002D0000C946A01DC01FC01672F71917723E1F72F
:1002E000329704C07C916D9370836291AE17BF0703
:0802F000C8F30895F894FFCF54
:00000001FF
